:020000040800F2
:100000000090002001510108853101088931010863
:1000100000000000000000000000000000000000E0
:10002000000000000000000000000000C5EF000814
:10003000000000000000000091F00008D5F000086A
:100040005151010851510108515101085151010804
:1000500051510108515101085151010851510108F4
:1000600099310108A1310108B1310108C9310108F4
:10007000E1310108F1310108515101080132010853
:10008000515101085151010805320108515101082F
:100090005151010851510108515101082132010803
:1000A00051510108515101085151010841320108D3
:0C00B00051510108515101085151010843
:1000C00010B5064C2378002B07D1054B002B02D02E
:1000D000044800E000BF0123237010BD98020020F7
:1000E0000000000040760108044B10B5002B03D03F
:1000F0000349044800E000BF10BDC04600000000F6
:100100009C02002040760108F8B507000C0015009D
:100110001E00012830D80C2015F070F802003F486E
:10012000B90041184A60002A01D10320F2BD0096AF
:100130000023002648C213600278521C02704868EF
:1001400000990160037184603548826801238360EF
:1001500081680129FCD02900324D05600568324EC6
:10016000356082608268134383606368009A380058
:100170000DF01AFF0020F2BD0120F2BD022804D2CA
:10018000264A80001018406801717047F0B585B0AC
:100190000024234D214F33E0A600022002A98851FC
:1001A000381D8019049000680079012826D101AA21
:1001B000694620000DF05AFF02A988516846007870
:1001C00000281BD06846007801280ED1A8680121BC
:1001D000A960AA68012AFCD0124A2A60124A2B6838
:1001E0001360A860A8680143A960019A6846017875
:1001F0002000049B1B689B681B689847641CE4B242
:1002000038788442C8DB012801D1029804E00398C1
:100210000299884200D3084605B0F0BDB402002020
:1002200000300240C2A507F4D002002010B504003F
:100230000EF096FB20000EF095FB10BD10B50400EB
:100240000EF0F8FB20000EF03BFB10BD80B50DF06A
:10025000F5FE01BD80B50DF007FF002800D0042099
:1002600002BD182070470000F1B584B00F001500E2
:100270001E006846047C012C33D8E920800014F06D
:10028000BDFF59496A46127C92008850002801D16E
:10029000162043E000963E000700E921890014F093
:1002A00073FF3E607D6001253869A8432C400443FC
:1002B0003C610098B8603868016802914B49791830
:1002C000019139003A310091406883082B409F200A
:1002D00040003A1846496846007C06F08DFA00282E
:1002E00001D002201AE07868016803233A68526856
:1002F0009208154006D008220A4302607068034045
:10030000012205E008229143016070680340002249
:1003100011466846007C06F0C1FA002005B0F0BD29
:10032000344AD060117070473349884201D10120AE
:1003300070470020704710B506F0AEFA0400FFF7D2
:1003400090FF2018E921C900401810BD81B029494B
:10035000800008184068E1218900401827494A08B0
:100360000388134202D003885B180380438813423A
:1003700002D043885B1843808388134202D083886D
:100380005B188380C388134202D0C3885B18C38084
:100390000389134202D003895B1803814389134206
:1003A00002D04289511841810169491C016101B0A3
:1003B000704738B50C000C4982008D58002104F0BC
:1003C000E4FF68680168012C04D1802252010A43CD
:1003D000026006E00A4A0A4002600020E02189002B
:1003E0006854002032BD0000C40200204E0300000B
:1003F00080770108C002002000002530FFFF0000C8
:10040000FFEFFFFFF1B58AB0BF480AA9097889005C
:10041000445800200890E1208000201804900169D1
:10042000028880890905090D89180205520F89186B
:10043000C006C00E081880B20790200004F0DDFA54
:1004400069460873012760680068000B384003D0D4
:100450006846007B032801D1012053E10226DF20FA
:100460008000225C0F2A16D1201802710021017031
:10047000A649CD68002D0ED00978C9070BD5417962
:10048000914208D042710020009000232069012190
:1004900001400420A8470798002805D0072107F04D
:1004A00025F8002900D108979848C1680191017882
:1004B00031406846007B964DDF229200A2181279E7
:1004C000002A00D131E1521E67D0521E00D145E111
:1004D000521E012A01D800F014FF921E00D19DE1A6
:1004E000521E00D1DFE1521E00D1EAE1521E00D1BE
:1004F000EBE1521E00D13BE2D21E00D13CE2521E83
:1005000000D16FE2521E00D1B0E2521E00D17AE358
:10051000521E00D10AE3521E00D124E3521E00D124
:100520003EE3521E01D100F0E7FB521E00D192E3E0
:10053000521E00D1A6E3521E00D1D8E1921E012A1C
:100540002BD9921E01D100F0FDFB521E01D100F00B
:1005500023FC921E21D0521E01D100F0C1FD521E7B
:1005600001D100F0E5FD521E01D100F076FE521ED1
:1005700001D100F0AAFE521E01D100F07FFC921EB4
:1005800001D100F0EDFC521E01D100F049FD521ED8
:1005900001D100F06FFD521E022A01D800F0B0FF19
:1005A000D21E01D100F06EFC521E01D100F011FFED
:1005B000521EF2D0521E01D100F02EFF521E01D168
:1005C00000F063FF521E012AE7D9921E01D0921E4D
:1005D000052A01D800F090FF921F01D100F07AFFA8
:1005E000521E032AD9D9283A022AD6D9123AD4D08F
:1005F000123A01D100F0D4FF0C3A00D18AE0521E29
:10060000022ACAD9D21E00D133E2521E00D159E2C9
:10061000921E01D100F088FF521E00D118E1921EF7
:10062000082A01D800F071FF0A3A022A04D903A966
:10063000200003F0CBF806003448C568002D12D026
:100640000078C0070FD5DF2080002018027941799B
:10065000914208D0427100200090002320690121BE
:1006600001400420A8476846007B142801D100F00F
:100670009EFF200004F0E5F9152807D114206946F3
:10068000087321690120084006F058FB1F48C5681F
:10069000002D12D00078C0070FD5DF208000201871
:1006A00002794179914208D04271002000900023E4
:1006B0002069012101400420A8470026089800284D
:1006C0001CD012480169C54A914217D0011D226908
:1006D0003A40920089580D69AB0B5B1CC04A15402B
:1006E0009B032B430B61001D216939408900405851
:1006F00001698B0B082B01D30A400261002E00D147
:10070000ACE630000BB0F0BDC4020020C0020020F7
:100710001D800000A068416B002903D020690740BC
:10072000380088470020C043ECE760680268102367
:100730009A430260002909D00020009000235F2224
:100740002069012101400920019DA8475F212069FE
:1007500007403800A268D2689047E3E76068006805
:100760000004C10F0AA8007806F0F1F861680A6871
:10077000BD4D28783040130B3B403BD093079B0F77
:10078000012B01D1002300E001232026B2435B01AD
:1007900013430B600026667661680A6853055B0F99
:1007A000012B16D0C54B13403A021A430A600028A9
:1007B00008D0009600235A22206901210140092017
:1007C000ED68A8475A21226901201040A268D2682A
:1007D0009047606800680009384009D0B84804991B
:1007E000088014260620DF2189006118087123E79C
:1007F0000520F8E7002808D0002000902122206979
:10080000012101400920ED68A8472121226901202A
:100810001040A268D26890470020E4E76068006852
:10082000C00B384046D020680078800742D5DF20D2
:1008300080002518EF7103A9200002F0C7FF060011
:1008400005D102262879992801D005202871F3E6E0
:10085000122820D1DF2080002018808AC10B1AD1F5
:100860000725010B294216D0C006C00E0F2812D151
:1008700003A9200002F0AAFF142069460873216929
:100880000120084006F05AFADF2080002018057188
:10089000002000266083DF20800020180089F903F3
:1008A00088420DD106E0DF20800020180089B103C6
:1008B000884205D10720DF218900611808710026D0
:1008C000BAE6200000F0AEFEB5E6DF20800020187A
:1008D0000189B2039142F3D121684968C9093940BD
:1008E00002D0617E491C617607210171A4E6A02136
:1008F000490061180A784B781B02D2188B781B04C8
:10090000D218C978090651180091112827D1DF2083
:1009100080002518A88AC10B21D1010B49071ED0E0
:10092000C106C90E02291AD10006810F22690120D1
:10093000104004F08DFE04236A460621266901203A
:100940003040A668B669B0470920287100261420F7
:100950006946087321690120084006F0EFF9DF209D
:10096000800020180089F9038842BFD10F20A2E738
:10097000200000F0BFFE5EE6DF2080002018008926
:10098000B2039042B2D16068026853055B0F042B3A
:1009900017D04A4B13406A091A430260002909D054
:1009A0000020009000235A222069012101400920E3
:1009B000019DA8475A21226901201040A268D268EF
:1009C0009047A068016800294CD02269012010409E
:1009D00088470028CAD10D2005E700BFCDB5E8B58E
:1009E000FF3F00000020009003230622002120008A
:1009F00002F087FD002835D1606801684A05520F72
:100A0000032A1AD02D4A0A40C021890011430160EF
:100A1000154D2878800709D50020009000235A2220
:100A20002069012101400920ED68A8475A21226967
:100A300001201040A268D26890470B4D28788007AB
:100A400009D50020009000231022206901210140D7
:100A50000920ED68A8471021226901201040A268F2
:100A6000D2689047E8E500BFC00200200026F643A8
:100A7000E2E50097972302220021200002F041FDC9
:100A80000028F5D16683BE4D2978314209D0002077
:100A90000090002329222069012101400920ED68EE
:100AA000A8472921226901201040A268D2689047F6
:100AB000B44804990880B44EBEE500BFFFF8FFFFBC
:100AC00014800000DF20800020180089B2039042CB
:100AD000F2D1002909D00020009000232A222069A9
:100AE000012101400920019DA8472A2122690120F6
:100AF0001040A268D268904700200090032306228D
:100B00000021200002F0FDFC0028D5D19C4D287862
:100B1000800709D50020009000232E2220690121A2
:100B200001400920ED68A8472E2195E7200002F03A
:100B3000ADFD00200090072303220021200002F0D9
:100B4000E0FC0028B8D18E4D2878800709D5002018
:100B50000090002331222069012101400920ED6825
:100B6000A847312178E70020009012230D220021B0
:100B7000200002F0C6FC00289ED1049805801D26A6
:100B80007F4D2878800709D500200090002330226F
:100B90002069012101400920ED68A84730215BE769
:100BA000112827D1DF2080002018808A774A024050
:100BB000032A1FD1002909D00020009000233122F0
:100BC0002069012101400920019DA84731212269A6
:100BD00001201040A268D26890470720DF218900D9
:100BE00061180871142069460873216901200840C2
:100BF00006F0A4F8DF20800020180089B1038842A5
:100C000000D019E5B2E62069614901402161200068
:100C100002F0F3FCA0684368002B05D002220121FA
:100C20002569012028409847DF2080002018594975
:100C3000049A11801B26217E491C217661680A686E
:100C400010239A430A60002101702169E022914338
:100C50002161152149E6A81E049A10801B26152043
:100C6000DF229200A2181071002909D00020009004
:100C700000231E222069012101400920019DA8476F
:100C80001E21E9E6DF20800025182889B203904262
:100C900057D1207E03281AD3206942083A4006D053
:100CA000A268526B002A02D09220287107E6002227
:100CB000002323762A71002907D0009221220121E6
:100CC000014009202E4DED68A8472121C4E6A06807
:100CD0004368002B09D02669B005800F421E92415F
:100CE000D20F0121012030409847CC480499088058
:100CF000C826B6001320A9E5A0684368002B05D0DC
:100D0000032201212569012028409847DF20800027
:100D100025182889B103884213D1A0684368002BA5
:100D200005D00422216901200840012198470121B2
:100D30000AA8007804F029FB0AA8007806F086FAD1
:100D40002E7179E400971B2307220021200002F076
:100D5000D8FB0028F5D106206083049805801D2665
:100D6000074D2878800709D50020009000230B222A
:100D70002069012101400920ED68A8470B216BE69D
:100D8000C002002026820000260200001FF00000A2
:100D9000FFFCFFFF1B800000112866D1DF208000D0
:100DA0002018808AC10B33D14104490F30D0C006CE
:100DB000C00E01282CD18B00A02040002218042155
:100DC000256901202840A568AD69A8470320DF21D7
:100DD000890061180871142069460873216901208F
:100DE000084005F0ABFFBC4D2878800709D50020EE
:100DF000009000230D222069012101400920ED68A7
:100E0000A8470D21226901201040A268D2689047AE
:100E1000DF2080002118888AF0221202024024D1AB
:100E2000C006C00E042801D010281ED1032008716E
:100E300014206946087321690120084005F07EFFEF
:100E4000A54D2878800709D50020009000230E22A8
:100E50002069012101400920ED68A8470E2122697F
:100E600001201040A268D2689047DF20800020183F
:100E70000189B20391420DD1032136E5A068816852
:100E8000002908D100200090032304220021200023
:100E900002F037FB55E722690120104088470A28F5
:100EA00002D00D2828D041E0681C049908801E2635
:100EB00000200090242303220021200002F021FBC7
:100EC0000028E7D1A068436A002B05D00122012148
:100ED00025690120284098477F4D2878800709D54B
:100EE0000020009000233A222069012101400920BE
:100EF000ED68A8473A21AFE50020009003230C22BB
:100F00000021200002F0FDFA0028C3D1724D28789C
:100F1000800709D50020009000233B222069012191
:100F200001400920ED68A8473B2195E5002000908D
:100F3000032304220021200002F0E3FA0028A9D1B3
:100F4000654D2878800709D50020009000231622DF
:100F50002069012101400920ED68A84716217BE5A1
:100F6000DF20800020180089B203904255D16068CC
:100F7000026853055B0F042B17D0584B13406A09C6
:100F80001A430260002909D00020009000235A2251
:100F90002069012101400920019DA8475A212269A9
:100FA00001201040A268D268904760680168102252
:100FB0000A430260A068436A002B0FD00622012179
:100FC0002569012028409847A068436A002B05D076
:100FD0000722012125690120284098470021226924
:100FE0000120104005F077FC002000902523062208
:100FF0000021200002F085FA00280ED1A068436A83
:10100000002B05D00822012125690120284098479E
:10101000CB4804990880D726760092E6208300000A
:10102000112811D1DF2080002518A88AC549014068
:10103000062909D114206946087321690120084056
:1010400005F07CFE26202871DF2080002018008912
:10105000B1038842E1D1A068416B002900D04EE184
:10106000436A002B05D00A2201212569012028406E
:1010700098477BE40021200003F0AFFCA068436A9E
:10108000002B05D00D22002125690120284098471A
:10109000200004F047FA104D2878800709D5002079
:1010A0000090002314222069012101400920ED68ED
:1010B000A8471421226901201040A268D2689047F5
:1010C000A068436A002B05D00E220021256901206B
:1010D00028409847EAE500BFC0020020FFF8FFFF64
:1010E00000971F230A220021200002F00AFA00289C
:1010F00093D108206083049805801D26A068436A68
:10110000002B05D0022201212569012028409847A3
:10111000BF4D2878800709D5002000900023392290
:101120002069012101400920ED68A847392193E495
:10113000112811D1DF2080002018808AF0221202AD
:10114000024009D1C006C00E032806D0042838D0BA
:101150000C281CD010284ED079E0002909D000209E
:10116000009000233A222069012101400920019DBD
:10117000A8473A21226901201040A268D26890470E
:101180002020DF21890061180871002657E0A0683F
:10119000436A002B05D00522012125690120284042
:1011A00098479B4D2878800709D5002000900023A0
:1011B0003B222069012101400920ED68A8473B211D
:1011C00032E0A068436A002B05D004220121256982
:1011D0000120284098478E4D2878800709D50020A7
:1011E0000090002316222069012101400920ED68AA
:1011F000A847162118E0A068436A002B05D00422F6
:1012000001212569012028409847814D28788007D1
:1012100009D50020009000231722206901210140F8
:101220000920ED68A8471721226901201040A26813
:10123000D26890470320DF218900611808711420CB
:101240006946087321690120084005F077FDDF2019
:10125000800020180189FA030CE6606801681022FA
:101260000A430260A068436A002B0FD006220121C6
:101270002569012028409847A068436A002B05D0C3
:101280000722012125690120284098470021226971
:101290000120104005F01FFB0020009021230622B2
:1012A0000021200002F02DF9002871D1A068436AC6
:1012B000002B05D0082201212569012028409847EC
:1012C000544804990880F026A6E611280CD126205F
:1012D000DF218900611808711420694608732169AB
:1012E0000120084005F02AFDDF2080002018008939
:1012F000B10388424CD1A068406B00284FD09220A7
:1013000089E1DF2080002518287903281ED10020DC
:1013100060830AA8007805F011FD216901200840CA
:1013200005F002FB0420287120690007800F0328C4
:101330000AD1688A400409D1B8486882B84E05E0ED
:10134000AE8100001FF00000002068826846007B2C
:1013500014281ED0A879E871A88AC10B03D02000F8
:1013600003F0CCFE0CE0F0210902014004D103A9F6
:10137000200003F0B3FB03E0200003F095FD06001E
:1013800014206946087321690120084005F0D6FC45
:10139000D7E4688AF903884202D10020688268E6AF
:1013A000A87800280CD12878002809D06978E9713C
:1013B000287100262E702069790301432161C0E461
:1013C0004E1E688A304201D1FFF750FB688A064002
:1013D000B7E400200290032001900097E6208000EF
:1013E000231806220021200002F0C0F80028EFD1C7
:1013F000074D2878800709D50020009000235D2242
:101400002069012101400920ED68A8475D218EE691
:10141000C0020020E081000006AB05AA0A210AA84C
:101420000078A5686D69A8470020A077E07721695A
:101430000120084004F08AF9002803D1E07F8021D0
:101440000143E177069A05A92000203013F0A1FEA0
:1014500000200290032001900820009023001C33FC
:101460000C220021200004F030FAAF4D28788007CC
:1014700009D50020009000234C2220690121014061
:101480000920ED68A8474C2151E600973923E82050
:101490008000225C243820184178200002F031F8C6
:1014A00000283FD1E82080002018408860830498FD
:1014B00005801D269C4D2878800709D500200090C6
:1014C000002344222069012101400920ED68A8473A
:1014D00044212CE6DF21890061180A89B3039A426E
:1014E00004D1142802D10320FFF780F9142819D061
:1014F000888AC00BF7D032E7200004F05BFA54E092
:1015000003A9200004F090FB4FE003A9200004F0A1
:101510008FFF0600606800680004C10F0AA8007809
:1015200005F015FAFFF788F8DF20800020188069A1
:101530000290002909D00020009000235E2220693B
:10154000012101400920019DA8475E212269012057
:101550001040A268D268904721690120084005F038
:1015600055FB062122690120104005F059FBDF21BF
:10157000890061180091029D032844D10098806978
:10158000401BBC4988423ED260680068000B38406E
:1015900039D0062122690120104005F041FBEBE71C
:1015A0006846017B200003F0C2F9FFF744F8DF2012
:1015B00080002018807800281FD02069010B394056
:1015C0001BD0410B394017D0574D2978890708D5D2
:1015D0000021009100235B22012101400920ED68D8
:1015E000A8475B21226901201040A268D268904779
:1015F0002069A14901402161012620699F490140DC
:101600002161FFF75BF8072061680968090A01405A
:10161000032900D10320FFF7E6F80000B0B6000070
:10162000B0360000F8B5404E007CC107480F3018B6
:1016300044680225002720698007C10F200001F0BF
:1016400033FF052802D0092852D022E00120608310
:10165000022120690843206167762776E022920004
:10166000A218874B93801D251623137032780A42E7
:1016700007D0009700230F22C107C90F0920F66881
:10168000B0470F21227CD007C00FA268D2689047D4
:101690002EE020698107C90F0BD1617E332912D258
:1016A000E02080002018774981809625082101706C
:1016B0001EE0C007C00F05F037F90F20E0218900B8
:1016C0006054002514E03178890707D5009700237E
:1016D0002122C107C90F0920F668B0472121227CC9
:1016E000D007C00FA268D2689047E020800027543E
:1016F0002800F2BDFEB5010001200B4D2A1D09692D
:1017000001408900545802270297032601A9226943
:101710001040A268D26990470A2820D00B2805D033
:101720000D285DD07DE000BFC002002000200090A9
:101730000C2302220021200001F0E3FE00284ED1FC
:101740002878384209D00020009000230422207C11
:10175000C107C90F0920ED68A847042181E0E120F5
:1017600080002018616809684905490F01290BD0DC
:101770000199032908D1216989080E40032E03D15C
:10178000B9030180002002E03F4901801E20029041
:10179000002000900C2303220021200001F0B1FE64
:1017A000002813D12878384209D000200090002367
:1017B0000122207CC107C90F0920ED68A84701213B
:1017C000227CD007C00FA268D268904720690C2104
:1017D0008843019989000C220A400243226146E0B5
:1017E000606800684005400F032801D1032300E032
:1017F0000E23002000900C220021200001F081FE29
:10180000002834D12878384209D0002000900023E5
:101810000322207CC107C90F0920ED68A8470321D6
:101820001FE0606800684005400F032801D10323D2
:1018300000E00E230020009004220021200001F08F
:1018400060FE002813D12878384209D0002000908B
:1018500000230222207CC107C90F0920ED68A84798
:101860000221227CD007C00FA268D268904702985C
:10187000FEBD000071170000FFDFFFFFFFEFFFFF5D
:101880001D800000968000001E800000F8B590B01A
:101890000400CA48A100401847680025E1208000E4
:1018A000381805900169028880890905090D891891
:1018B0000205520F8918C006C00E0E18B6B23800C5
:1018C00003F09BF86946087301200490786800686B
:1018D000000B0121014005D06846007B032801D0A0
:1018E00000F092FF01206AE003A9200001F06EFFE2
:1018F0000500B248C768002F10D00078C0070DD58A
:1019000032797079904209D07271002000900023E2
:10191000206904990140C9B20420B8476846007B99
:10192000142801D100F03CFF200003F08AF81528AC
:1019300008D1142069460873216904980840C0B290
:1019400005F0FCF99D48C568002D10D00078C0074F
:101950000DD532797079904209D0727100200090D3
:101960000023206904990140C9B20420A84700253A
:10197000089800281ED091490869B44A904219D0AD
:10198000081D2269049B13409A00825813699E0B1C
:10199000761CAF480340B6031E431661091D226939
:1019A000049B13409A0089580A69930B072B01D9AD
:1019B00010400861002D01D100F02BFF280011B06C
:1019C000F0BDA068416B002903D0227CD007C00F76
:1019D00088470020C043F2E7606800680004C10F38
:1019E0006846407B04F0B3FF216904980840C0B208
:1019F00005F07DF9606801680A0B049B134012D062
:101A00008A07920F012A01D1002200E0049A2023C4
:101A1000994352010A4302608E4805990880FA25CD
:101A20006D004320307164E7112937D1B08AC10BB2
:101A300034D10727010B394230D0C106C90E012924
:101A40002CD100212176216902220A43226100065D
:101A5000810F6846407B03F0FBFDB08A000B074016
:101A6000BB00A020400022180421276904983840B8
:101A7000C0B2A768BF69B84704986083142069465C
:101A80000873216904980840C0B205F057F96068EE
:101A90000168102291430160442030713089A9030C
:101AA000884207D1606801681022914301600F20CD
:101AB000307100251DE7049860836A4621001431C7
:101AC000236904981840C0B2A3681B6A984720692C
:101AD0000C218843009989000C220A4002432261AC
:101AE0004520E5E70020029046200190012000906B
:101AF0002300143302220021200001F037FD059855
:101B000007801D25F5E603A9200000F085FFEFE61C
:101B1000112956D1B08AA5490140062951D1142076
:101B200069460873216904980840C0B205F006F9B7
:101B3000606801684A05520F032A1CD09C4A0A407B
:101B4000C0218900114301601C4D287880070AD507
:101B50000020009000235A22206904990140C9B254
:101B60000920ED68A8475A21226904981040C0B2A4
:101B7000A268D268904700256583032030710F4F1B
:101B80003878800709D50095002310222069049930
:101B90000140C9B20920FF68B847102122690498A2
:101BA0001040C0B2A268D268904720690007800F39
:101BB000032805D17F4830827F4D02E0C00200201B
:101BC0003582308980210902884246D16FE7216938
:101BD0007A4A0A40226161680A68102313430B6045
:101BE0000021618361680A6853055B0F012B19D0DE
:101BF0006F4B1340EA011A430A6000280AD0002004
:101C0000009000235A22206904990140C9B209209A
:101C1000019FB8475A21226904981040C0B2A268B7
:101C2000D2689047002737702069E02188432061FF
:101C3000217E032912D34008049901400CD0A068EA
:101C4000406B002808D09220307132E7CDB5E8B55E
:101C5000FF3F0000F481000037714AE6491C2176FD
:101C6000200001F0CAFC01216846407B03F08DFB97
:101C70006068016810220A430260C2480599088022
:101C80009B20E1E760680068C00B0499014009D01F
:101C9000A068026B002A05D000212369049818402F
:101CA000C0B29047B84D287880070AD50020009030
:101CB00000231E22206904990140C9B20920ED6861
:101CC000A8471E21226904981040C0B2A268D268B9
:101CD000904701216846407B03F057FB606801682C
:101CE00010220A430260A748059908809B20DFE67E
:101CF0003089A903884209D0A068C26B002A25D088
:101D000000216846407B904701281FD19F480599D4
:101D100008804020307100256846407B05F01CF8A3
:101D2000994F3878800709D5009500231322206940
:101D300004990140C9B20920FF68B84713212269FC
:101D400004981040C0B2A268D2689047D1E5A0685C
:101D5000C26B002A19D001216846407B90470128B8
:101D600013D16846407B05F071FA60680168102263
:101D7000914301606846407B04F0E0FF8448059988
:101D80000880FA256D0043203071308980210902D6
:101D90008842DBD160680168102291430160A0682D
:101DA000406B002800D092203CE600BF1FF00000EE
:101DB000FFF8FFFF28A3000028230000FFFCFFFF1F
:101DC000200001F063FC0020009003230322002187
:101DD000200001F096FB0028B8D16B4F38788007BF
:101DE0000AD5002000900023312220690499014087
:101DF000C9B20920FF68B8473121A0E760680068D0
:101E00004005400F042800D151E6002000905023E7
:101E10000D220021200001F074FB002896D1032040
:101E20006083059807801D25574F387880070AD5AD
:101E30000020009000233022206904990140C9B29B
:101E40000920FF68B847302179E7112912D1B08AFB
:101E5000A249014003290DD1200001F017FC032005
:101E60003071142069460873216904980840C0B293
:101E700004F064FF3089A903A6E6009543230722F6
:101E80000021200001F03DFB00283CD106206083AA
:101E9000059807801D253C4F387880070AD500201B
:101EA000009000230B22206904990140C9B2092047
:101EB000FF68B8470B2142E7112924D1B18A874A2C
:101EC0000A40062A1FD100280AD0002000900023D3
:101ED0002C22206904990140C9B20920019FB8470A
:101EE0002C21226904981040C0B2A268D2689047A1
:101EF0000320307114206946087321690498084052
:101F0000C0B204F01BFFF4E400200090032304227D
:101F10000021200001F0F5FA0028F4D11A480078D9
:101F2000800700D5A3E0AEE03079492803D1BA4854
:101F3000B08103203071307903281ED100206083E6
:101F40006846407B04F0FAFE042030710E4D28787C
:101F500080070AD5002000900023202220690499E0
:101F60000140C9B20920ED68A847202122690498E0
:101F70001040C0B2A268D268904703A9200000F0C8
:101F800018FEB5E48A820000C0020020FB84000035
:101F9000F4810000A06881682A27002901D13771E7
:101FA00087E56846407B88470A2802D00D283CD048
:101FB00057E0A068436A002B06D001220021276960
:101FC00004983840C0B29847002000905223032262
:101FD0000021200001F095FA002894D108206083A8
:101FE0006068016810220A430260A068436A002BFF
:101FF00006D006220021256904982840C0B29847DF
:10200000AD4805990880AD4D844F387880070AD5D2
:102010000020009000233A22206904990140C9B2AF
:102020000920FF68B8473A2189E600200090032381
:102030000C220021200001F064FA002800D058E4AE
:10204000764F387880070AD50020009000233B2285
:10205000206904990140C9B20920FF68B8473B21B3
:102060006DE6377100256D48007880070BD500209C
:10207000009000231622206904990140C9B209206A
:10208000664FFF68B847162159E611291AD1B08A60
:1020900012490140062915D1A068436A002B06D0D9
:1020A00009220021276904983840C0B2984753207C
:1020B0003071142069460873216904980840C0B241
:1020C00004F03CFE3089A9038842B7D1A068406B78
:1020D000002800D067E60F20A4E400BF1FF0000036
:1020E00061680A6853055B0F042B19D0744B1340C9
:1020F0006A021A430A6000280AD0002000900023D8
:102100005A22206904990140C9B20920019FB847A9
:102110005A21226904981040C0B2A268D268904740
:10212000A068436A002B06D00A2200212769049880
:102130003840C0B29847216904980840C0B204F002
:10214000EFFBA068436A002B06D00B220121276910
:1021500004983840C0B2984701216846407B04F09B
:10216000BAFB00200090542306220021200001F039
:10217000C8F900280ED1A068436A002B06D00C22B3
:102180000021256904982840C0B29847BA480599AB
:1021900008801425307954281AD000216846407BE5
:1021A00004F099FBA068436A002B11D0062201219C
:1021B000276904983840C0B29847A068436A002B4A
:1021C00006D007220021276904983840C0B29847FA
:1021D00099E63089A9038842FAD10121200002F052
:1021E000FCFBA068436A002B06D00E220121276960
:1021F00004983840C0B29847216904980840C0B29A
:1022000004F092FB200003F08DF904480078800769
:1022100000D553E15EE100BF64800000C0020020F1
:10222000A068436A002B06D0022221690498084066
:102230000021C0B2984700955823E8208000225C16
:102240000021200001F05DF9002800D016E1E8200F
:10225000800020184088608351E411290FD1B18A91
:10226000F02212020A400AD1C906C90E032907D07A
:10227000042974D00C2963D0102900D17EE09DE0A0
:102280006068016810220A4302600B4805990880C3
:102290000A4DA068436A002B06D006220021276958
:1022A00004983840C0B29847606801684A05520FE8
:1022B000042A23D0024A05E04383000043030000C0
:1022C000FFF8FFFF0A408021C90011430160B24FAF
:1022D000387880070AD50020009000235A22206910
:1022E00004990140C9B20920FF68B8475A21226900
:1022F00004981040C0B2A268D2689047A64F3878C0
:1023000080070AD50020009000233A222069049912
:102310000140C9B20920FF68B8473A2122690498F0
:102320001040C0B2A268D268904714206946087372
:10233000216904980840C0B204F000FD59203CE037
:1023400000280AD00020009000233B222069049935
:102350000140C9B20920019FB8473B211CE0002879
:102360000AD0002000900023162220690499014021
:10237000C9B20920019FB84716210DE000280AD0F4
:102380000020009000231722206904990140C9B25F
:102390000920019FB8471721226904981040C0B254
:1023A000A268D2689047142069460873216904988E
:1023B0000840C0B204F0C2FC032030713089802193
:1023C0000902884256D19AE111290FD1B08AC54934
:1023D000014006290AD15A20307114206946087339
:1023E000216904980840C0B204F0A8FC3089A90310
:1023F00088423FD1A068436A002B06D00F220021FB
:10240000276904983840C0B29847A068406B0028FC
:1024100000D1F8E4C7E4A068436A002B11D00A2277
:102420000021276904983840C0B29847A068436AE1
:10243000002B06D00B220121276904983840C0B236
:102440009847002000905B2306220021200001F025
:1024500058F8002812D1A068436A002B06D00C223D
:102460000021256904982840C0B298470248059980
:102470000880142547E500BF14800000A068436A67
:10248000002BF7D00F229DE63089A9038842F1D1B5
:102490000121200002F0A1FA200003F043F8A06817
:1024A000436A002B06D00E22012127690498384088
:1024B000C0B298473848007880070BD500200090BC
:1024C00000231522206904990140C9B20920324F26
:1024D000FF68B847152132E406AB09AA0021276935
:1024E00004983840C0B2A7687F69B84700200290BE
:1024F0000320019006988008009009AB012200217A
:10250000200001F033F8FEE4002002900320019047
:1025100001200090E62080002318062200212000E0
:1025200001F024F80028EED11B4F387880070AD537
:102530000020009000235D22206904990140C9B267
:102540000920FF68B8475D21C5E70095662314227E
:102550000021200000F0D5FF00281BD1059807803E
:102560001D250D4F387880070AD5002000900023E4
:102570004A22206904990140C9B20920FF68B8477E
:102580004A21226904981040C0B2A268D2689047DC
:102590000B206083B7E400BFC0020020112934D1B2
:1025A000B08AC10B31D0C006C00E0C282DD1042337
:1025B000A120400022180A21276904983840C0B29F
:1025C000A768BF69B84703203071142069460873B3
:1025D000216904980840C0B204F0B0FB884F3878F5
:1025E00080070AD50020009000234B22206904991F
:1025F0000140C9B20920FF68B8474B2122690498FD
:102600001040C0B2A268D26890473089A9038842BE
:10261000C0D16DE400953923E8208000225C0021C0
:10262000200000F06EFF00283FD1E8208000201835
:1026300040886083606801684A05520F032A1CD0F5
:10264000704A0A40C0218900114301606C4D28780E
:1026500080070AD50020009000235A22206904999F
:102660000140C9B20920ED68A8475A21226904989F
:102670001040C0B2A268D2689047614D28788007A8
:102680000AD50020009000234422206904990140CB
:10269000C9B20920ED68A847442122690498104076
:1026A000C0B2A268D2689047D6E5606801684A0562
:1026B000520F032A5DD0534A0A40C02189001143BA
:1026C00001604F4F387880070AD500200090002322
:1026D0005A22206904990140C9B20920FF68B8470D
:1026E0005A21F8E61FF000003089AA0390420BD16E
:1026F000142909D1E8208000205C112802D1032090
:10270000FFF7D6F90320E7E4142932D01427B08A62
:10271000C00B0AD0200002F0F1FC69460F7321695A
:1027200004980840C0B204F009FBB08AB6490140E1
:1027300010291ED168460773216904980840C0B269
:1027400004F0FCFADEE7200003F034F926E003A9E8
:10275000200003F069FA21E003A9200003F068FEDD
:102760000500606800680004C10F6846407B04F003
:10277000EEF8FFF7BEF806216846407B0BF0C7FF76
:10278000606800684005400F032801D0FFF749F951
:10279000A2E46846017B200002F0C9F8FFF7A8F820
:1027A000B078002825D02069010B049A0A4020D077
:1027B000410B049A0A4019D0114D2978890709D58F
:1027C0000021009100235B2204990140C9B2092035
:1027D000ED68A8475B21226904981040C0B2A26846
:1027E000D2689047206989490140216103203071F6
:1027F000049D2069864901402161FFF7B9F800BFB7
:10280000C0020020FFF8FFFF684644733C000895B3
:1028100007960225DF208000261832780F2A16D16D
:10282000327100203070A148C768002F0FD00078A7
:10283000C0070CD57079904209D0727100200090C9
:102840000023206904990140C9B20420B8470798C1
:10285000002806D0072104F049FE002901D1049880
:102860000890924908782840C96801916946097B17
:10287000684F3279002A00D1ABE0521E3DD0921E43
:10288000012A01D8FFF750FB0C3A01D1FFF79FF95D
:10289000521E01D1FFF794FA521E01D1FFF7AEFA92
:1028A000D21F012A29D9921E01D1FFF7E6FAD21EC2
:1028B00023D0521E00D1B3E4121F01D1FFF76AFBEF
:1028C000521F022A19D9D21E01D1FFF71DFB521E39
:1028D00000D119E6521E10D0921E00D19AE6521E67
:1028E000012A0AD9921E01D0921E052A00D82AE791
:1028F000921F00D1F8E6521E032A00D827E7121FC4
:1029000001D1FFF769F8521E01D1FFF7BBF9521E42
:1029100001D1FFF71CFA521E00D12AE7921E01D105
:10292000FFF782F8521E01D1FFF7C5F8521E01D100
:10293000FFF7D8F8521E01D1FFF7E5F8521E01D17A
:10294000FFF7E6F8921E9CD0D21E00D1C4E5121FFC
:1029500001D1FFF77AFA921E01D1FFF796FB521EC2
:1029600001D1FFF7BDFB521E01D1FFF732FC121F50
:1029700000D172E4521E00D126E5521E00D14AE574
:10298000521E00D180E5D21F022AB6D9D21E00D134
:10299000DBE5521E00D101E60E3AAED0123A00D16C
:1029A000F7E60C3A01D1FFF70CF8521E022AA4D91F
:1029B000521F01D1FFF780FA521E00D1DBE6921EB2
:1029C00001D1FFF795F9521E082A00D8C4E6FEF798
:1029D0008BFF61680A6810239A430A60002809D0B7
:1029E0000020009000235F22207CC107C90F09202E
:1029F000019DA8475F21227CD007C00FA268D26842
:102A00009047FEF7E6FF00001FF00000FFDFFFFF2A
:102A1000FFEFFFFF1D800000F3B581B00126B14933
:102A20000069304080000D58022402980078112877
:102A300064D1E02080002818008AF02109020140BA
:102A40005CD1A94A0721C306DB0E9B1E012B04D9CA
:102A50009B1E2DD0083B2BD04DE0C80128184723E2
:102A600003708280FA24640068680268130A1940BF
:102A7000042938D09D491140B2020A4302600B4F2D
:102A80003878800709D50020009000235A22286951
:102A9000012101400920FF68B8475A212A69012015
:102AA0001040AA68D26890471DE000BFC002002015
:102AB0006B681B681B0A1940032908D0E0208000BE
:102AC0002818432101708280FA2464000BE0E02181
:102AD000890069180024C006C00E0C2801D14920C5
:102AE00000E0032008701420029908702969012071
:102AF000084004F023F90298007814284CD1B64815
:102B0000C768007802210840E02189006918097C23
:102B1000C906C90E022913D0032904D004291CD0E8
:102B20000C2927D038E0002808D00020009000238E
:102B300001222869012101400920B847012125E02F
:102B4000002808D0002000900023042228690121D9
:102B500001400920B847042118E0002808D00020CF
:102B60000090002302222869012101400920B84772
:102B700002210BE0002808D000200090002303224F
:102B80002869012101400920B8470321286906402E
:102B90003000AA68D2689047E02080002818818819
:102BA00080221202914202D10F21017000242000E4
:102BB000FEBDF8B50F000224017CC807C00F4949CB
:102BC00082008D58DF2189006E18397814291DD0B4
:102BD000B079F071B08AC10B03D0280002F08EFAF0
:102BE0000CE0F0210902014004D13900280001F075
:102BF00075FF03E0280002F057F904001420387034
:102C0000297CC807C00F04F099F853E029698A0BA2
:102C10000F27A103002A16D07089884205D1377189
:102C2000287E401C2876002444E0B0690005000D91
:102C3000B38A1B055B0F9A1833235A431418214398
:102C40007181A4B236E0328A8A4204D100243482EF
:102C5000452030712EE0B17800291DD1317800294E
:102C60001AD0032403F06BFE012804D168680068C1
:102C70002040022804D0686800680440012C0BD171
:102C80007078F071307830710024347028698021B8
:102C90008901014329610DE0AB4C308A204202D00A
:102CA000308A044006E03078002801D00F2401E08B
:102CB0000024E4432000F2BD80B547498200891812
:102CC0004968496809684A07D20F02D0FDF79AFBA4
:102CD00002BDFEF7DBFD02BD3F4A800010184068D0
:102CE000C1607047C4020020F4810000FFF8FFFFBC
:102CF0007CB5AC4A8300D258012314686468640A26
:102D00001C4002D0D468002C01D1022076BDDF2403
:102D1000A40014192578002D04D155682E68360BAF
:102D20001E4001D1032076BD6170002903D0022925
:102D300008D007D314E029684905490F03290FD1AA
:102D40007D2113E02968AF4D0D4082267600B54203
:102D500008D087231B020B40832109028B4204D039
:102D6000102076BDC90B0B40FAD005212170916867
:102D7000896A8847002076BDF8B58A4A8300D3580F
:102D8000DA68002A01D10220F2BDDF2292009C18ED
:102D90002278002A05D15D682E680127320B3A405F
:102DA00001D10320F2BD10227605760F032E01D04B
:102DB0001020F2BD61707F262670002906D00229FE
:102DC00000D007D22968C90B0F4003D09968896ADF
:102DD000884700221000F2BDC0020020F8B51300A1
:102DE000704A84001459E268002A01D10220F2BD21
:102DF000DD229200A5182A7A002A06D16268009284
:102E0000176801263A0B324001D10320F2BD10228F
:102E10007F057F0F032F01D01020F2BD697281273B
:102E20002F722B80002907D0022900D008D20099E8
:102E30000968C90B0E4003D0A168896A884700223F
:102E40001000F2BDF1B582B056486C46247AA40059
:102E50000459E068002801D10220FEBDDD20800079
:102E60002018007A002806D16068009006680125C5
:102E7000300B284001D10320FEBD1020E127FF00C8
:102E80003740C226B600B7421CD16C36A619717203
:102E90008227377232802269E026B2435B011E40EE
:102EA00016432661002907D0022900D00AD20099D2
:102EB0000968C90B0D4005D06846007AA168896A87
:102EC00088470020FEBDF1B582B036486C46247AB2
:102ED000A4000459E068002801D10220FEBDDD20D5
:102EE00080002018007A002806D1606800900668EB
:102EF0000125300B284001D10320FEBD1020E12721
:102F0000FF003740C226B600B7421CD16C36A61966
:102F100071728327377232802269E026B2435B01E7
:102F20001E4016432661002907D0022900D00AD28C
:102F300000990968C90B0D4005D06846007AA16860
:102F4000896A88470020FEBDFF7F0000F8B5154B59
:102F500084001B59DC68002C01D10220F2BDDD2465
:102F6000A4001C19257A002D05D15D682D68012665
:102F70002F0B374001D10320F2BDEF0B3E4001D1B2
:102F800000290CD16905490F032908D1002161727C
:102F900084212172062161602280996834E010202A
:102FA000F2BD0000C4020020F1B535486C4624781B
:102FB000A4000459E068002801D10220F2BDDD2000
:102FC00080002018057A002D05D165682D6801263E
:102FD0002F0B374001D10320F2BDEF0B3E4001D152
:102FE0000E000CD16D056D0F032D08D141728521A6
:102FF00001724260038068460078A16804E01020F6
:10300000F2BD000004070000896A88470020F2BD75
:1030100070B51B4A8300D258D368002B01D102201F
:1030200070BDDF239B00D3181C78002C05D1546899
:1030300024680125260B2E4001D1032070BDE60B2C
:10304000354001D10D0008D16405640F032C04D173
:103050005970862119709168A7E1102070BD80B564
:103060009049820089184968DF2292008A1800235B
:1030700053700F2313708968896A8847002002BD46
:10308000C4020020F1B582B0B3486B461B7A9B00A6
:10309000C05801900224DF239B00C0180378002B46
:1030A00005D1019B5B681B68DD04ED0F01D1032096
:1030B000FEBD6D462A70019AE825AD0055192E22F5
:1030C0000326891E142900D9E9E002A77F5C7F004E
:1030D000BF4400BF0BE5E5D3E51B2D353D4FE55A59
:1030E000E5E5E5618190A5BC73005907C90F0AD0D9
:1030F0006C8000244470962101706846007A019922
:103100008968896A88472000FEBD5905490F03294F
:10311000F9D10121019A12685268D2080A4002D1FD
:103120009A081140EFD1002444701A21E4E75905B0
:10313000490F0329E7D1002444701821DCE7590521
:10314000490F0329DFD1002444709421D4E75905A5
:10315000490F0329D7D10199096849680A07D20F95
:10316000D1D00A21297008216980002444701E21D1
:10317000C2E701998968C96A0029C4D01021698011
:1031800000244470A221B7E76946097841701121F3
:1031900001700024B1E75905490F0329B3D11E403E
:1031A000012EB0D95907C90FADD1112129700A21BB
:1031B00069800024447002709FE75905490F032974
:1031C000A1D11E40012E9ED95907C90F9BD01621AF
:1031D0002970F931ECE75905490F032993D11E40B5
:1031E000012E90D90270122129700B2169800024D0
:1031F000447082E75905490F032984D11E40012EEE
:10320000EFD901219A080A40F7D1019A1268128970
:1032100052080A42E5D0132129700921A4E7590573
:10322000490F0329E9D11E40012EDAD901219A085C
:103230000A40E2D1019A1268128992080A42D0D05B
:103240000B21698000244470652155E75905490F19
:10325000032925D11E40012E22D901990968098927
:10326000C909C9071CD5694609784170FF210E318B
:1032700069801521297002708BE75905490F0329D0
:103280000ED10199096849684B06DB0F08D06946E1
:103290000978417000246C80052129708BE7102487
:1032A00031E70000C0020020F1B584B02A486B4627
:1032B0001B7C9B00C05801900224DF239B00C01898
:1032C0000378002B06D1019B5B681B6801251E0B50
:1032D0002E4001D103201CE002926A4611700321A6
:1032E000072200266F463F78012F04D0062F12D008
:1032F000072F1ED02DE09908294009D0C5844670BB
:10330000027000246846007C01998968896A8847B0
:10331000200005B0F0BD1D0A2A40032AF8D119404B
:103320000129F5D9467002990968C1612B21017004
:10333000E7E71D0A2A40032AEAD119400129E7D903
:1033400002990968C161FF210E31C1844670622172
:10335000EDE71024DCE70000C402002070B5C74B85
:1033600084001B59DF24A4001C192578002D04D1EA
:103370005D682D68EE04F60F01D1032070BDC04ECC
:103380002E40C025AD00AE420DD1452525705961B6
:1033900019690C25A943920015400D431D610021B8
:1033A0006170996801E0022070BD896A8847002039
:1033B00070BD0000FBB582B0B0486946097A89004B
:1033C0004558DF208000285C002804D16868006828
:1033D000C104C90F01D1032064E04105490F03294D
:1033E0000AD18007800F012801D801205AE00A9CE9
:1033F000FF21891D8C4201D3022053E068460270F0
:1034000028691021884328619E48291810206A469F
:103410001278D21E082A45D801A39B5C9F4400BFA6
:103420000A328436843A144014000C220A80296936
:1034300008432861002620001FD000276846007A34
:1034400002F084F9012800D10427049800228E4E4E
:103450000DE00D22EAE70E22E8E7FB300880E9E7FD
:10346000FC30FBE7815CD319EB189955521CA24242
:10347000F8D3D42080002C5202E0D42080002E52B9
:103480006846007BDF21890069184870684600782B
:10349000C94AA854312008706846007AA968896A28
:1034A0008847002005B0F0BDF8B584B004000E00D8
:1034B0001E211C3011F068FE0120029003AB220097
:1034C0001E32002125692840A5686D69A847039D23
:1034D000AD1CEDB20196009523001C3301220021A2
:1034E000276902983840C0B203F046FA032806D193
:1034F00060680068000B02990140EBD1102005B014
:10350000F0BDFEB504000E001500089F01970220D3
:10351000009023001C33217CC807C00F07E00197EF
:103520000221009123001C332A0021690840310048
:1035300003F022FA032814D1012061680968090BFD
:103540000140ECD10020E021890060541020FEBD34
:1035500000226B461B7A00930300200002F0F1F971
:10356000FEBD31000D2DF3D10122F2E7F6B583B097
:1035700004000A9800210CE000228D006519AE18A5
:103580001D68D700FD40B577521C042AF5D31B1DDA
:10359000491C8142F0D30C9E69460F7C0D7B800054
:1035A000801C0881019668460089009023001C3326
:1035B0003A00217CC807C00F08E0019669460989D6
:1035C000009123001C333A0021690840290003F0D0
:1035D000D3F9032807D1012061680968090B01406C
:1035E000EBD1102007E029000B9A00920300002283
:1035F000200002F0A6F905B0F0BDF8B50400E52002
:103600008000255801266D4F3878800709D50020A5
:10361000009000231F222069012101400920FF683A
:10362000B8471F21226901201040A268D268904744
:1036300021690120084003F0E9FA052122690120EF
:10364000104003F0EDFAE5218900611800915C4F0C
:10365000032810D100980068401BB8420CD2606863
:103660000068000B304007D005212269012010407E
:1036700003F0D6FAECE7F2BD0420F2BDC40200204C
:1036800004070000A20300004602000038B5040051
:1036900000250120616809688908014005D0657628
:1036A0002269104003F017F931BD2269104003F080
:1036B00012F9257631BD7CB5E021890044182C39FA
:1036C0004218218A4904490F491E1177E1780029DF
:1036D00071D1002315E099004118A2256D00491908
:1036E0000D784E783602AD198E783604AD19C9784A
:1036F000090669189D004519D626B600A9515B1C1C
:10370000DBB2117F8B42E6DB2E4D2F4B1678F6068F
:10371000F60E761E0DD0761E21D0761E25D0761E92
:1037200029D0761E2DD0761E31D00A3E0F2E3CD9E0
:1037300073BDD9094183406801688D06ED0F126899
:103740005204960FAE4200DA3500202291436A01FE
:1037500020252A400A430260A38075202AE08121A7
:1037600049004183A380762024E0FF21091D418385
:10377000A38078201EE0822149004183A580792022
:1037800018E0FF21891D4183A5807A2012E0C368DB
:10379000DB6A002B07D0002900D001215268057C8C
:1037A000E807C00F9847032004E0852149004183C2
:1037B000A3807B20207073BD9F030000C002002007
:1037C00071170000198000000F800000F2B594B05E
:1037D000040002200590DF20800025182879009041
:1037E0007538072805D214980078142801D001F004
:1037F0005AF8D520800026181F20C0431121142715
:10380000019707270197009F052F01D100F07DFF49
:10381000752F46D0762F00D1A4E0772F00D11BE181
:10382000782F00D17DE1792F00D1E2E17A2F00D10C
:103830001BE27B2F00D170E27D2F00D1C7E27F2FEA
:1038400000D15AE3812F01D100F0EAFB822F01D190
:1038500000F0AAFC832F01D100F06BFD842F01D171
:1038600000F001FF852F01D100F03CFE872F00D131
:10387000E1E2892F00D173E38B2F01D100F00BFC23
:103880008C2F01D100F0DCFC8D2F01D100F0A6FDC2
:103890008F2F01D100F07FFE9A2F01D100F079FF28
:1038A00093E20127F9032A898A4200D13BE20122EF
:1038B000336818401043306001433160606800682D
:1038C00040090240AE4B0B40500318433060616822
:1038D00009780B220A40092A35D0E168002932D044
:1038E0000A68002A2FD0000CFF21090288422AD141
:1038F00006A9237CD807C00F9047032802D00F28C1
:1039000003D020E03068C02121E03068C021884326
:1039100040210143316006980D9007980E90089859
:103920000F90042706A8007D0121084202D0099AC1
:1039300010920527400808420BD00A980CA9BA003B
:1039400088507F1C05E03068C021884380210143F6
:10395000316030680C9000200290032001900097A5
:103960000CAB2DE201216A461173C9032A898A42F0
:1039700000D1D8E132681040022202433260114384
:103980003160012062681268520902407C4B0B4092
:10399000510319433160C027FF43626812780B233B
:1039A0001340092B52D0E26852680092002A4DD091
:1039B000090CFF221202914248D1C049621804A9A1
:1039C00023691840009B984703283BD00F283DD11E
:1039D000D5208000201801680F4040213943016044
:1039E0001C2106A811F0D0FB0023002006A901919C
:1039F00001210091D52189006118897F8B4200D275
:103A00000C2B01D300F05BFF401C0199091D5A08E3
:103A100092008918009A1A400A68049E05D15F0036
:103A2000F65B360416430E6003E05F00F65B32433C
:103A30000A605B1CDEE769460006400E801C0873C6
:103A40001068B4E13168C020084303E030680740E3
:103A5000802038433060AAE18022120229899142F5
:103A600000D160E1D521890061180B68184002235C
:103A700003430B609BB2FF2000061843086002431B
:103A80000A60012000906068006843090120184026
:103A90003B4B1340400318430860C0229043402230
:103AA00002430A6003AA04A9236900981840C0B21F
:103AB000E3685B6898471C2106A811F065FB0023AA
:103AC000002206A80190D52080002018817F8B421B
:103AD00000D20C2B01D300F00DFF521C0198001DE9
:103AE000590889004018009919400168049E05D1C1
:103AF0005F00F65B36040E43066003E05F00F65B92
:103B0000314301605B1CDEE700210291032101913A
:103B10001106490E891CC9B2009106AB0F22E97942
:103B200051E101270697F9032A898A4200D1FAE078
:103B300032681040032202433260114331606068F2
:103B40000068400938400E4A0A4040031043306084
:103B5000616809780B220A40092A3AD0E16889682D
:103B60000091002935D003AB04AA010C276901207C
:103B70003840009FB847032804D00F2805D028E01C
:103B8000FF9FFFFF3068C02127E06846007B0028C8
:103B90001FD06846007B07281BD23068C0218843AD
:103BA000402101433160002207A800900698694631
:103BB000097B8A4201D300F0B2FE04990968009B98
:103BC0001B1D9700D9510499091D0491401C521CDA
:103BD000EDE73068C02188438021014331603068BF
:103BE000079000200290032001900698009007ABF8
:103BF000E6E0802109022A898A4200D198E33268EE
:103C00001040042202433260114331600120626897
:103C10001268520902402A4B0B405103194331608C
:103C200062681268D20802403ED1E268D368002B75
:103C30003AD007270A0A3A40090C8C462169084005
:103C400061469847032852D00F2853D13168C020CD
:103C50008143402008433060000A07402069E0218A
:103C600088437901014321614AE0802109022A89C0
:103C70008A4258D032681040052202433260114314
:103C80003160012062681268520902400C4B0B40FF
:103C900051031943316062681268D208024003D1AF
:103CA000E2681369002B0DD1606800788007800FEF
:103CB00002281FD1012000F0FEFD00BF72030000AA
:103CC000FF9FFFFF4A05520F090C276938409847AC
:103CD00003280CD00F280DD13068C0218843402123
:103CE000014331602069E0218843206108E03068A9
:103CF000C02103E03068C021884380210143316046
:103D000000200290032001900120009033000F2238
:103D1000E9792000FFF72AFC57E001206A4610737A
:103D20002989C203914200D1D9E3E168496B01912D
:103D3000002933D0D6218900611800910B46DC217F
:103D4000890062183178C906C90E27693840019F79
:103D5000B84703281FD00F2820D1D5208000201875
:103D60000168C022914340220A430260002606AB4C
:103D70006846007B21001F1DD52292008A18127F01
:103D8000964201D300F0CEFDB200009CA458BC5076
:103D9000401C761CF0E73068C02103E03068C02189
:103DA0008843802101433160D5208000205806904F
:103DB00000200290032001906846007B009006AB33
:103DC0000F22E9792000FFF7D1FB00F075FDEF31FC
:103DD000618301213268104008433060CA03024306
:103DE00032606068006840090840A24B13404003FD
:103DF00018433060A04A02403260C02082433260E3
:103E000090B2FF22120602433260606800688008A8
:103E1000014003D020698107C80F00E00220029012
:103E2000872001900120009033000F22E9792000C3
:103E3000FFF79CFB2EE1E879002808D0022801D08A
:103E400002D303E0132102E0122100E01421032732
:103E50001F2614980078884217D1A88AC10B14D164
:103E6000010B490715D01F2101400F290DD1142046
:103E700014990870217CC807C00F02F05FFFA020D2
:103E80004000205C00903040012800D0C4E0009841
:103E9000800900D1C0E0E0684069002800D13BE221
:103EA0000098800901280BD106AAA2204000211801
:103EB000237CD807C00F01F055FC002800D02BE26E
:103EC000012606AB0098800907403A0000212769C7
:103ED00001203840E7687F69B847B24F38788007DB
:103EE00009D50020009000235122206901210140C2
:103EF0000920FF68B84751218AE0F13161833268B7
:103F0000C0218A433260022110400843306080B2F1
:103F1000FF22120602433260880310433060012200
:103F200063681B685F091740524B034078031843CE
:103F30003060514B03403360606800688008024085
:103F400002D020698007C10F0291892001900120D1
:103F5000009033000F22E9792000FFF707FB99E07A
:103F6000E879002808D0022801D002D303E0132109
:103F700002E0122100E0142103271F261498007884
:103F8000884249D1A88AC10B46D1010B490743D0C9
:103F90001F2101400F293FD1142014990870217C62
:103FA000C807C00F02F0CAFEA0204000205C0090AD
:103FB0003040022830D1009880092DD0E068806917
:103FC000002800D1A8E1012606AAA220400021185D
:103FD00023690120184001F037FC06AB00988009E6
:103FE00007403A000021276901203840E768BF698F
:103FF000B8476C4F3878800709D50020009000231F
:1040000053222069012101400920FF68B84753214C
:10401000206906403000C3E0A88A0640102E19E34C
:10402000F23161833168C02291433160084003213D
:1040300001433160308C8AB2010411433160802029
:1040400000020843306001216268126852090A4088
:10405000084B0340500318433060074A0240326067
:10406000606800688008014008D020698107C80F97
:1040700005E000BFFF9FFFFFFFF8FFFF0220029057
:104080008B2001900120009033000F22E97920005D
:10409000FFF76CFA6FE3E879002808D0022801D016
:1040A00002D303E0132102E0122100E014211F27B4
:1040B00014980078884217D1A88AC10B14D1010B3B
:1040C000490715D01F2101400F290DD11420149943
:1040D0000870217CC807C00F02F030FEA02040000D
:1040E000205C00903840032800D016E10098800939
:1040F00000D112E1E068C069002800D1ABE3B64806
:10410000217CCA07510F4058E4218900405A4004DD
:10411000400F411EC9B200203268120C06AB9A83D0
:104120000690069A531C06932318A22676009B1924
:104130001E785F783F02F6199F783F04F619DB7806
:104140001B06F31806AE361D9200B350001DC0B218
:104150008A009042E5D3009880090090032606ABC0
:1041600002463240E979277CF807C00FE768FF690B
:10417000B84700980640012E00D06CE3094E307815
:10418000800709D50020009000235422207CC1071D
:10419000C90F0920F668B0475421227CD007C00F10
:1041A00056E300BFC0020020F33161833168C022B2
:1041B000914331600840042101433160308C8AB260
:1041C0000104114331608020000208433060012760
:1041D0006168096849093940B74A024048031043F9
:1041E000306021690906490FB44A024008021043B1
:1041F0003060606800688008384003D0206981071B
:10420000C80F00E0022002908C200190009733003C
:104210000F22E9792000FFF7A9F9002800D0D8E0A3
:10422000A74E3078800709D5002000900023342263
:104230002069012101400920F668B0473421C2E01D
:1042400034206F463871E879002808D0022801D060
:1042500002D303E0132102E0122100E014211F2702
:1042600014980078884258D1A88AC10B55D1010B07
:10427000490752D01F2101400F294ED11420149913
:104280000870217CC807C00F02F058FD0020608331
:10429000A0204000205C1F21014004293DD180095D
:1042A0000321084239D001400291012804D00AD3E9
:1042B000032805D002D306E0352002E0362000E0D6
:1042C0003720694608717E4F387880070AD500206C
:1042D0000090002368460279207CC107C90F09209D
:1042E000FF68B8470127684601792269012010401C
:1042F000A268D2689047E068006A019000280BD05D
:1043000030684105490F0091030C029A0021206991
:1043100007403800019CA0479DE2A88A0740102F63
:1043200000D19EE2288980210902884200D0C3E2A0
:10433000D5E0F43161833168C02291433160084097
:10434000052101433160308C8AB201041143316090
:10435000802000020843306001276168096849092C
:104360003940554A0240480310433060216909062C
:10437000490F524A024008021043306060680068EA
:104380008008384003D020698107C80F00E0022070
:1043900002908D200190009733000F22E9792000D0
:1043A000FFF7E4F8002814D1454E3078800709D58E
:1043B000002000900023552220690121014009209E
:1043C000F668B0475521206907403800A268D268D6
:1043D00090473C488CE200BFC402002055206F4645
:1043E0003871E879002808D0022801D002D303E010
:1043F000132102E0122100E014211F2714980078F5
:10440000884261D1A88AC10B5ED1010B49075BD0FC
:104410001F2101400F2957D1142014990870217CC5
:10442000C807C00F02F08AFC00206083A020400073
:10443000205C1F210140052946D180090321084243
:1044400042D001400291012804D00AD3032805D0AC
:1044500002D306E0562002E0572000E058206946CB
:104460000871174F387880070AD500200090002384
:1044700068460279207CC107C90F0920FF68B84748
:10448000012768460179226901201040A268D2689C
:104490009047E068406A019000280BD030684105E1
:1044A000490F0091030C029A00212069074038004F
:1044B000019CA047CFE100BFFF9FFFFFFFF8FFFF78
:1044C000C002002032800000A88A0740102F00D1CF
:1044D000C7E1288980210902884200D0ECE103204D
:1044E0002871E0E100216A4611738521490061834A
:1044F0003168C02291433160726A0840D106C90E0A
:1045000001433160308C8AB2010411433160802054
:104510000002084330600127616809684909394091
:10452000974A0240480310433060964901403802E0
:10453000084330600490E068006B009000280AD0C7
:1045400004A8031D03AA3078C106C90E26690120FC
:104550003040009EB0476846007B401C69460873A7
:10456000606800688008074003D020698107C80F91
:1045700000E0022002908F2001906846007B0090AE
:1045800004AB0F22E9792000FEF7F0FF7E48288176
:104590001E200590B6E0A88A4004400F401E6F46DA
:1045A0003870E879002808D0022801D002D303E04F
:1045B000132102E0122100E014210327149800784F
:1045C000884243D1A88AC10B40D1010B49073DD095
:1045D000C006C00E0F2839D1142014990870217C10
:1045E000C807C00F02F0AAFBA0204000205C1F21DA
:1045F0001F220240736A9A4228D1820926D0E268BB
:10460000926B002A21D0002212E09300E318A22628
:1046100076009B191E785F783F02F6199F783F0459
:10462000F619DB781B06F31806AE9700F351521CFF
:104630006B461B789A42E8D306AB6A460140267C5B
:10464000F007C00FE468A46BA04704E1287DC00612
:10465000C00E102800D104E1288980210902884277
:1046600000D12F7128E100216A461173852149008C
:1046700061833168C02291433160726A0840D1067B
:10468000C90E01433160308C8AB20104114331609C
:1046900080200002084330600127616809684909E9
:1046A0003940374A024048031043306035490140E1
:1046B0003802084330600690E068836A002B06D019
:1046C00006A8021D03A926690120304098476846C4
:1046D000007B401C694608736068006880080740DA
:1046E00003D020698107C80F00E002200290032058
:1046F00001906846007B009006AB0F22E97920000C
:10470000FEF734FF00202870D6E001213268104007
:1047100008433060CA0302433260606800684009A1
:104720000840174B1340400318433060154A0240BD
:104730003260C0208243326090B2FF2212060243F0
:104740003260606800688008014003D020698107FA
:10475000C80F00E0022002909A20019001200090F2
:1047600033000F22E9792000FEF700FF00280DD169
:10477000FF20801C6083044828811E2007E000BFC2
:10478000FF9FFFFFFFF8FFFF1E8000000020059045
:1047900092E0E879002808D0022801D002D303E093
:1047A000132102E0122100E01421A88A1F26149A86
:1047B00012788A4252D1C10B50D1010B49074DD01A
:1047C0001F2101400F2949D1142014990870012795
:1047D00021690120084002F0B1FAA0204000205CCD
:1047E00000900640012E60D1032680095DD0E0686C
:1047F000406900282FD00098800901280AD10EAA0C
:10480000A2204000211823690120184000F0AAFFCF
:10481000002820D10EAB0098800906403200E979CB
:10482000266901203040E6687669B047A64E3078A8
:10483000800709D500200090002352222069012121
:1048400001400920F668B04752212069074038002E
:10485000A268D26890470020288140E60640102ECA
:1048600023D11420149908700126216901200840E1
:1048700002F064FA0020288103202871924D2878E4
:10488000800709D5002000900023592220690121CA
:1048900001400920ED68A8475921206906403000F1
:1048A000A268D2689047022007E028898021090287
:1048B000884201D103202871059815B0F0BDD5229A
:1048C0009200A218091A9177C1B20C2901D0FFF702
:1048D000B2F810680690002002907720019007201F
:1048E000009006AB0F22E9792000FEF73FFE7748E3
:1048F0002881E1E72000891AD5239B00C318997706
:10490000D1B20C2901D0FFF7FFF8002102917721E5
:1049100001910721009106AB0F22E979E5E70690A6
:10492000FFF75DF96A4610730C00FFF73DFAF8B522
:104930008CB014293CD10600F068002838D0C06B38
:10494000002835D0002569460D73FF200A3070839A
:10495000012405A8031D03AA04A9376901203840D2
:10496000F768FF6BB84704985949014004916846BD
:10497000007B401C694608730498059070680068C5
:104980008008044003D030698107C80F00E002208E
:10499000DF21890074180290032001906846007B93
:1049A000009005AB0F22E1793000FEF7DFFD2570A6
:1049B00002200DB0F0BD44498000081840684068EE
:1049C00001680807C00F70473F4980000818406819
:1049D000406800788007800F704738B542681368D8
:1049E0000424A3438C0004252C401C431460027C47
:1049F000D007C00F01F06FFF31BD81B0010014205E
:104A0000344A89180A78002A19D00A78920601D403
:104A1000032014E000220B78DB06DB0E012B04D010
:104A2000022B05D0042B06D008E011200A7105E006
:104A30001220012301E0132002230B710A7001B040
:104A40007047F8B50500E02080002E18308A224912
:104A500001400D2901D1102014E003241A20285E02
:104A600000282DD0401E012809D9801E09D0401EE3
:104A700009D0401E0B2802D90C3821D005E01120A6
:104A800000E00F2030701520F2BD0F4F38788007FE
:104A900009D50020009000235C22287CC107C90FA3
:104AA0000920FF68B8475C212A7CD007C00FAA689C
:104AB000D2689047686800684005400F032800D11D
:104AC00034700020F2BD0000C00200200F80000002
:104AD000FF7FFFFF7E0300001FF00000F3B581B0F1
:104AE00004002348C768007802210840E0218900BB
:104AF000661801250B21327CD206D20E521E152AD1
:104B000000D9C3E101A352009B5A9F448C032A00A1
:104B10007803780392007803AC001402D001780186
:104B2000B801780366007E037E0352035E02DC0256
:104B30004C0306033E039C0261680968890829400A
:104B400000D0AAE102216183002808D00020009053
:104B500000232B222069012101400920B8472B2185
:104B6000206905402800A268D268904798208BE110
:104B7000C002002003216183002808D0002000909B
:104B8000002332222069012101400920B847322147
:104B9000206905402800A268D2689047102073E180
:104BA000002808D000200090002333222069012132
:104BB00001400920B84733215EE106216183616825
:104BC00009688A082A4057D0002808D000200090A1
:104BD00000230C222069012101400920B847029FCF
:104BE0000C21226901201040A268D268904714204D
:104BF000387021690120084002F0A0F8002120004F
:104C0000FEF752FC052802D0002060833BE160687B
:104C100001684A05520F042A19D0A04A0A40A90285
:104C2000114301609E4F3878800709D5002000901D
:104C300000235A222069012101400920FF68B8475A
:104C40005A21226901201040A268D26890476583EA
:104C50009448B08016203070914E3078800709D586
:104C60000020009000230F2220690121014009202B
:104C7000F668B0470F21FFE020684068C008284070
:104C80006ED04C2000E121684968C908294016D03F
:104C900022213170002808D00020009000233C22FF
:104CA0002069012101400920B8473C2120690540C5
:104CB0002800A268D268904708206083F7BD60682A
:104CC000007880074DE0A068C06A002803D010205B
:104CD00060839D20D8E060680078800741E000286C
:104CE00008D00020009000232322206901210140E8
:104CF0000920B8472321226901201040A268D26808
:104D000090470F2021690906490F09D1A168896BD5
:104D1000002903D160680078800722E06083932037
:104D2000B2E06168096807220B0A1340032B17D110
:104D30008B082B4004D023685B68DB082B400FD026
:104D400062831D213170002808D0002000900023CC
:104D500006222069012101400920B84706218BE085
:104D60008807800F022824D02A208DE021680A8934
:104D7000D2082A421DD06268126892082A4003D1E4
:104D80004968C908294014D00A2161836321317020
:104D9000002808D00020009000234622206901212D
:104DA00001400920B847462166E021680A89D20AF5
:104DB0002A4271D06268126892082A4003D049687A
:104DC000C908294068D0FF21103161836421317006
:104DD000002808D0002000900023602220690121D3
:104DE00001400920B847602146E022681289520933
:104DF0002A4251D0618330213170002808D0002030
:104E0000009000234D222069012101400920B8476C
:104E10004D2131E02268128992082A423CD06183F8
:104E2000616809688908294001D02D2100E011211D
:104E30003170002808D0002000900023492220690A
:104E4000012101400920B847492115E02068008967
:104E5000C009284220D02F2016E0092060831BE0E3
:104E6000002808D000200090002359222069012149
:104E700001400920B8475921206905402800A2684F
:104E8000D2689047F7BD11203070F7BD6068007898
:104E90008007800F022800D13570F7BDFFF8FFFFB3
:104EA000C00200201D800000FEB504000220029018
:104EB000E02080002618308AA021490067180125CB
:104EC000C106C90E01292CD0022909D0032943D0DB
:104ED000062977D0072900D184E00F296DD08AE018
:104EE0003878797809024018B97809044018F978B7
:104EF00009064018009060680068800828407CD04F
:104F000004236A460621276901203840A768BF6943
:104F1000B8476583F089400401D00020F081092062
:104F20006AE0616809688908294066D10006810F36
:104F300022690120104000F08BFB308A4004400FB2
:104F400083003A000421276901203840A768BF691F
:104F5000B847658344204FE00020019000903878E6
:104F6000797809024018B97809044018F9780906D7
:104F700047186B4601AA0321206905402800A5684F
:104F80006D69A8470098042815D16068006840053D
:104F9000400F03280FD10198194988420BD1380FCF
:104FA00003D0052803D0082803D1292024E0272096
:104FB00022E02A2020E003201EE0200000F022F85A
:104FC00002901AE0206800890009284211D00423C9
:104FD0003A000B21206905402800A468A469A04775
:104FE0002C2009E020680089000A284201D03D20D9
:104FF00002E0357001E0112030700298FEBD000023
:1050000088130000FEB502210191032501240168E7
:1050100049684909214002D1C168002920D0A02156
:10502000490041180A784B781B02D2188B781B0470
:10503000D218C978090651180091CA0B224015D020
:10504000D5239B00C1508909294009D101684968CD
:10505000090A214004D0FEF72EFB052001904AE00A
:10506000416809680D40022D45D141E0C168002921
:105070003ED0096C00293BD0E02189004118098A03
:105080004904490F491ED522920082181177060063
:10509000002011E081007118A222520089180A78BC
:1050A0004F783F02D2198F783F04D219C978090688
:1050B000511882009950401CD62189007318091F8D
:1050C0007118097F8842E5D30099DC2080003218EE
:1050D000376901203840F7683F6CB847002803D093
:1050E000E0208000345406E0E0208000355402E0E7
:1050F000E021890044540198FEBD0000F8B5040089
:10510000A020400020180178407800020818E02113
:1051100089006618B083317CC906C90EB1770125B4
:105120000104890E01220A400104C90E090703D0B7
:10513000110001D03420BEE0C305DB0D00210704BF
:10514000FF0F0DD18E48221813803A271088814214
:1051500018D26018A1235B00C35CC355491CF5E756
:10516000F827FF01074007D1308A4004400F062886
:1051700000D8A4E01B2BFBD3002A00D09FE080487E
:10518000205A984200D39AE0B180372093E0182348
:105190001321276901203840A768BF69B847032059
:1051A0003070784E3078800709D5002000900023B9
:1051B00062222069012101400920F668B04762217E
:1051C000B2E006230921276901203840A768BF699A
:1051D000B847032030706B4E3078800709D5002027
:1051E000009000234E222069012101400920F66829
:1051F000B0474E2198E00123102120690540280086
:10520000A468A469A0473A2055E001230E21206933
:1052100005402800A468A469A0473B204BE0206813
:1052200000898009284248D002230C2120690540CA
:105230002800A468A469A0473C203CE0A1680F694D
:10524000002F3AD0038822003A32B17F206905400E
:105250002800B84738202EE021680989890A0FE024
:10526000A1680F69002F29D0038822003A32B17F4C
:10527000206905402800B847F1BD21680989490A1D
:1052800029421AD0A1680969002909D115E02168CD
:105290000989490A294211D0A168096900290DD05C
:1052A000038822003A32B17F206905402800A468B3
:1052B0002469A04703203070F1BD3570F1BDA120F5
:1052C000400022182E482018B17F491E0E29F4D81C
:1052D00001A349005B5E9F441C00E8FE1CFF30FFF9
:1052E00062FF44FF62FFA0FFB4FF7EFF86FFE0FF86
:1052F00062FF62FFB4FE18230821276901203840AD
:10530000A768BF69B847032030701E4E3078800709
:1053100009D5002000900023472220690121014087
:105320000920F668B0474721206905402800A26897
:10533000D2689047F1BD70B50400C248A10045583D
:10534000C1482E1800203070200001F0D0FC6868A1
:1053500001684A07D20F01D0142003E010220A434B
:1053600002603F20B0702869B849014080204000A9
:10537000084328612000A968896A884770BD000039
:105380004E030000C00200207047F3B583B0AD4863
:105390006946097B890044580025019560680168C9
:1053A000102291430160606801684A05520F17D0CE
:1053B000CB4A0A4002600126CA4F3878800708D5D8
:1053C000009500235A222069012101400920FF682D
:1053D000B8475A21206906403000A268D268904739
:1053E00020690221884320616583E0218843206190
:1053F000DF21890066183178002913D03570B94F44
:105400003978890707D5009500235B22C107C90FAA
:105410000920FF68B8475B21227CD007C00FA26833
:10542000D26890476846007C002800D12576B57088
:10543000F5717570606800684107C90F1DD020685C
:10544000007983079B0F012201216846007B01F050
:1054500025FA6068016808220A4302600220307160
:10546000042301AA02216846007BA768BF69B847E8
:10547000606800684107C90F27D120680079830759
:105480009B0F002200216846007B01F007FA60684C
:1054900001680822914301606846007C002801D120
:1054A0003E203071F5705005009004236A460721B4
:1054B0006846007BA768BF69B847042301AA022198
:1054C0006846007BA768BF69B847206800798007F5
:1054D000800F61680A6803239A4310430860A0485C
:1054E0002018002101804580E12080002018002242
:1054F00000230EC07B48C568002D0DD00078C00782
:105500000AD532797079904206D072710091207C70
:10551000C107C90F0420A8476846007B01F0E7FBDC
:1055200005B0F0BDFEB50400002001906068016880
:105530006C4F01264A05520F012A18D0684A0A40CA
:105540003102114301603878800709D500200090AE
:1055500000235A222069012101400920FD68A84743
:105560005A21226901201040A268D2689047DF20AA
:10557000800025180020E870E8712978002914D0EF
:1055800028703878800709D50020009000235B221E
:105590002069012101400920FF68B8475B21226989
:1055A00001201040A268D26890472169012008407C
:1055B000616809688908314014D0FFF7FCF9616817
:1055C000096803230B4002000121276901203840AC
:1055D00001F064F90220287160680168102291438B
:1055E000016019E0FFF7E7F96168096803230B40E0
:1055F0000200002127690120384001F04FF93E20C8
:1056000028713006009004236A460721256901208D
:105610002840A568AD69A847042301AA022125698D
:1056200001202840A568AD69A847E1208000201826
:105630000021002200230EC020690640300001F046
:1056400056FBF7BDC40200207E030000FFFCFFFFF5
:10565000F1B582B008007B4C6946097A890061186F
:1056600001914A6853681D68032103262E40864233
:1056700034D0B04200DB30000326B5430840284355
:1056800018605068036801251E40012E01D10026D4
:1056900000E001262027BB4376011E4306605068C8
:1056A000006801406846007A01F02DF920788007F3
:1056B0000BD5002000900023382201984068006933
:1056C000012101400920E468A0470198426838217F
:1056D0001069054028009268D2689047F7BD000025
:1056E000FFF8FFFFC002002038B5564C8500641952
:1056F0006468AE4D6419002906D0022908D005D38C
:10570000042909D006D309E0012108E0022106E0BE
:10571000042104E0082102E0102100E000212170B2
:1057200011886182002B01D101F016FB31BD10B54B
:1057300044498200891849689C4A8A1813782024B1
:105740001C4314708968896A884710BD3D498000F0
:1057500008184068406800684103C80F704700009F
:105760004E03000078B503000020364C9B00E31880
:105770005B680093E424A4001B5B5B045B0F5B1E6F
:10578000DBB2022B5CD90C784D782D0264198D7830
:105790002D046419CD782D06641914600D794E79A5
:1057A0003602AD198E793604AD19CE793606AD19AB
:1057B00055600D7A4E7A3602AD198E7A3604AD19DF
:1057C000CE7A3606AD199560DB1E1B0639D0157DE5
:1057D000FC232B4013750225A600760F022E23D939
:1057E000F61E012E02D9B61E0FD01CE001251D4366
:1057F00015750B7B4D7B2D025B198D7B2D045B1981
:10580000C97B09065918D1600EE01D4315750B7B45
:105810004D7B2D025B198D7B2D045B19C97B09061D
:105820005918116100E002200099E4229200895A7F
:105830000906890F022904D3A101490F042900D9BF
:10584000022072BDC0020020F0B5594B800018182C
:105850004068E4239B00C05A4004400F431E1B06CF
:1058600000200025107650769C0D0B00195C5E1C04
:10587000365C36028919167E76009153167E012118
:105880007700D75B002F02D0761C167601E0012549
:105890005176801CC0B21E5C5F1C3F5C3F02F61953
:1058A000177E7F00D653167E7700D75B002F02D07D
:1058B000761C167601E001255176801CC0B2A0420C
:1058C00001D22900D2D00020F0BDF8B584B0040088
:1058D0000D001E000A9F68468021114301720CA82A
:1058E0000078019000976846027A217CC807C00FB3
:1058F000290001F041F803960CA90E7809E0019601
:105900000097039B69460A7A21690840290001F043
:1059100033F803280BD1012061680968090B0140A5
:10592000EDD11120E02189006054102007E029000A
:105930000B9A009203000022200000F002F805B04C
:10594000F0BDF8B51C0010230569B14E2E4006616C
:10595000E025AD0045191F02052C06D0062C0CD001
:10596000072C11D0092C0BD01EE006992970016973
:10597000A84A0A400261002316E03743076113E09A
:105980003743076109230FE0002901D099200AE07D
:10599000406800684005400F042801D0012A01D169
:1059A0000F2000E0112028701800F2BD7E030000D7
:1059B000C0020020F8B586B004000220049096488A
:1059C00025183920002703261D21944AEB78312B16
:1059D00011D0332B78D0342B00D17FE0352B00D180
:1059E000B4E0362B00D1CAE0372B00D1CCE0382B05
:1059F00000D1FFE001E120001C30059069460F73E3
:105A000087496752874820180090217CC807C00F3B
:105A1000FFF79CFE012811D192208000201807700A
:105A2000477000980590012021690909014032D092
:105A3000616809688908014028D028E0A777E777DE
:105A4000217CC807C00FFFF781FE002803D1E07F4B
:105A500080210143E1777248201840881A2809D92B
:105A600070482018C05D21002031C8557F1C1A2FB6
:105A7000D9D2F5E76A48201841888F42D3D20099DD
:105A8000C95D22002032D1557F1CF5E7022069460E
:105A90000873332000E00320E1218900661869467D
:105AA000097B029101905E4820184088001D80B259
:105AB0000090059BF27E29782000FFF706FF002862
:105AC00001D1F08B608398E0E1239B00E3181A80FA
:105AD0000491D97E04295FD174205DE0E12080002B
